:020000040000FA
:020000000528D1
:06000A008312031307300E
:100010009F008501860183160313BF308500FF30E2
:100020008600831203138B018601831603138C0150
:100030008316031318151330831603139900133016
:1000400083160313990083160313181283120313E4
:1000500098178316031306158615831203131816B3
:1000600083160313181383120313831203138C1ABA
:100070001A08051E3528831203138C1A1A08051A4C
:100080003B288312031305132530A300A4004E2040
:1000900023082402031947287D20472883120313CD
:1000A0008C1E0800831203131819612898186428FD
:1000B0001A08A100F839F83C031908002102692048
:1000C00008001A08051308001F121F161A08051346
:1000D00008002308840021088000A30AA31F080049
:1000E0002530A3000800240884000008A200A40A08
:1000F000A41F08002530A4000800732005174E2017
:10010000051E7F282208850086008D200513051610
:100110004E20051A88289620080083160313B03055
:1001200085000F3086008312031308008316031323
:10013000BF308500FF30860083120313080083164A
:0E0140000313850183120313FF3085009F28EF
:02014E0000347B
:02015000003479
:02400E00233F4E
:00000001FF
